{
  "contractName": "TodoList",
  "abi": [
    {
      "constant": true,
      "inputs": [],
      "name": "taskCount",
      "outputs": [
        {
          "internalType": "uint256",
          "name": "",
          "type": "uint256"
        }
      ],
      "payable": false,
      "stateMutability": "view",
      "type": "function"
    }
  ],
  "bytecode": "0x608060405260008055348015601357600080fd5b506080806100226000396000f3fe6080604052348015600f57600080fd5b506004361060285760003560e01c8063b6cb58a514602d575b600080fd5b60336045565b60408051918252519081900360200190f35b6000548156fea265627a7a723158200847dbb25afc68affd912f7aa28fa5b91cd34b1370ad698354bfd4ea538d435a64736f6c63430005100032",
  "source": "pragma solidity >=0.4.22 <0.9.0;\n\ncontract TodoList {\n    uint256 public taskCount = 0;\n\n    // struct Task {\n    //     uint256 id;\n    //     string content;\n    //     bool completed;\n    // }\n\n    // mapping(uint256 => Task) public tasks;\n\n    // event TaskCreated(uint256 id, string content, bool completed);\n\n    // event TaskCompleted(uint256 id, bool completed);\n\n    // constructor() public {\n    //     createTask(\"Check out website\");\n    // }\n\n    // function createTask(string memory _content) public {\n    //     taskCount++;\n    //     tasks[taskCount] = Task(taskCount, _content, false);\n    //     emit TaskCreated(taskCount, _content, false);\n    // }\n\n    // function toggleCompleted(uint256 _id) public {\n    //     Task memory _task = tasks[_id];\n    //     _task.completed = !_task.completed;\n    //     tasks[_id] = _task;\n    //     emit TaskCompleted(_id, _task.completed);\n    // }\n}\n",
  "sourcePath": "/home/shanmukh/Projects/blockchain/trail1/contracts/TodoList.sol",
  "compiler": {
    "name": "solc",
    "version": "0.5.16+commit.9c3226ce.Emscripten.clang"
  },
  "schemaVersion": "3.4.4",
  "updatedAt": "2022-01-14T19:54:00.077Z",
  "networkType": "ethereum",
  "devdoc": {
    "methods": {}
  },
  "userdoc": {
    "methods": {}
  }
}